{
	"data": {
		"bytecode": {
			"linkReferences": {},
			"object": "60606040527fdb81b4d58595fbbbb592d3661a34cdca14d7ab379441400cbfa1b78bc447c365600102600090600019169055670de0b6b3a76400003414151561004757600080fd5b610197806100566000396000f30060606040526004361061004c576000357c0100000000000000000000000000000000000000000000000000000000900463ffffffff1680634ba4c16b14610051578063b2fa1c9e1461006c575b600080fd5b61006a600480803560ff16906020019091905050610099565b005b341561007757600080fd5b61007f61014a565b604051808215151515815260200191505060405180910390f35b670de0b6b3a7640000341415156100af57600080fd5b6000546000191681604051808260ff1660ff167f01000000000000000000000000000000000000000000000000000000000000000281526001019150506040518091039020600019161415610147573373ffffffffffffffffffffffffffffffffffffffff166108fc671bc16d674ec800009081150290604051600060405180830381858888f19350505050151561014657600080fd5b5b50565b6000803073ffffffffffffffffffffffffffffffffffffffff1631149050905600a165627a7a72305820763d7eb71624c4e05e5095f0c1bddb9a41b0e09b082cd19eae018d80b952d0f90029",
			"opcodes": "PUSH1 0x60 PUSH1 0x40 MSTORE PUSH32 0xDB81B4D58595FBBBB592D3661A34CDCA14D7AB379441400CBFA1B78BC447C365 PUSH1 0x1 MUL PUSH1 0x0 SWAP1 PUSH1 0x0 NOT AND SWAP1 SSTORE PUSH8 0xDE0B6B3A7640000 CALLVALUE EQ ISZERO ISZERO PUSH2 0x47 JUMPI PUSH1 0x0 DUP1 REVERT JUMPDEST PUSH2 0x197 DUP1 PUSH2 0x56 PUSH1 0x0 CODECOPY PUSH1 0x0 RETURN STOP PUSH1 0x60 PUSH1 0x40 MSTORE PUSH1 0x4 CALLDATASIZE LT PUSH2 0x4C JUMPI PUSH1 0x0 CALLDATALOAD PUSH29 0x100000000000000000000000000000000000000000000000000000000 SWAP1 DIV PUSH4 0xFFFFFFFF AND DUP1 PUSH4 0x4BA4C16B EQ PUSH2 0x51 JUMPI DUP1 PUSH4 0xB2FA1C9E EQ PUSH2 0x6C JUMPI JUMPDEST PUSH1 0x0 DUP1 REVERT JUMPDEST PUSH2 0x6A PUSH1 0x4 DUP1 DUP1 CALLDATALOAD PUSH1 0xFF AND SWAP1 PUSH1 0x20 ADD SWAP1 SWAP2 SWAP1 POP POP PUSH2 0x99 JUMP JUMPDEST STOP JUMPDEST CALLVALUE ISZERO PUSH2 0x77 JUMPI PUSH1 0x0 DUP1 REVERT JUMPDEST PUSH2 0x7F PUSH2 0x14A JUMP JUMPDEST PUSH1 0x40 MLOAD DUP1 DUP3 ISZERO ISZERO ISZERO ISZERO DUP2 MSTORE PUSH1 0x20 ADD SWAP2 POP POP PUSH1 0x40 MLOAD DUP1 SWAP2 SUB SWAP1 RETURN JUMPDEST PUSH8 0xDE0B6B3A7640000 CALLVALUE EQ ISZERO ISZERO PUSH2 0xAF JUMPI PUSH1 0x0 DUP1 REVERT JUMPDEST PUSH1 0x0 SLOAD PUSH1 0x0 NOT AND DUP2 PUSH1 0x40 MLOAD DUP1 DUP3 PUSH1 0xFF AND PUSH1 0xFF AND PUSH32 0x100000000000000000000000000000000000000000000000000000000000000 MUL DUP2 MSTORE PUSH1 0x1 ADD SWAP2 POP POP PUSH1 0x40 MLOAD DUP1 SWAP2 SUB SWAP1 KECCAK256 PUSH1 0x0 NOT AND EQ ISZERO PUSH2 0x147 JUMPI CALLER PUSH20 0xFFFFFFFFFFFFFFFFFFFFFFFFFFFFFFFFFFFFFFFF AND PUSH2 0x8FC PUSH8 0x1BC16D674EC80000 SWAP1 DUP2 ISZERO MUL SWAP1 PUSH1 0x40 MLOAD PUSH1 0x0 PUSH1 0x40 MLOAD DUP1 DUP4 SUB DUP2 DUP6 DUP9 DUP9 CALL SWAP4 POP POP POP POP ISZERO ISZERO PUSH2 0x146 JUMPI PUSH1 0x0 DUP1 REVERT JUMPDEST JUMPDEST POP JUMP JUMPDEST PUSH1 0x0 DUP1 ADDRESS PUSH20 0xFFFFFFFFFFFFFFFFFFFFFFFFFFFFFFFFFFFFFFFF AND BALANCE EQ SWAP1 POP SWAP1 JUMP STOP LOG1 PUSH6 0x627A7A723058 KECCAK256 PUSH23 0x3D7EB71624C4E05E5095F0C1BDDB9A41B0E09B082CD19E 0xae ADD DUP14 DUP1 0xb9 MSTORE 0xd0 0xf9 STOP 0x29 "
		},
		"gasEstimates": {
			"creation": {
				"codeDepositCost": "81400",
				"executionCost": "20162",
				"totalCost": "101562"
			},
			"external": {
				"guess(uint8)": "infinite",
				"isComplete()": "639"
			}
		},
		"methodIdentifiers": {
			"guess(uint8)": "4ba4c16b",
			"isComplete()": "b2fa1c9e"
		}
	},
	"abi": [
		{
			"constant": false,
			"inputs": [
				{
					"name": "n",
					"type": "uint8"
				}
			],
			"name": "guess",
			"outputs": [],
			"payable": true,
			"stateMutability": "payable",
			"type": "function"
		},
		{
			"constant": true,
			"inputs": [],
			"name": "isComplete",
			"outputs": [
				{
					"name": "",
					"type": "bool"
				}
			],
			"payable": false,
			"stateMutability": "view",
			"type": "function"
		},
		{
			"inputs": [],
			"payable": true,
			"stateMutability": "payable",
			"type": "constructor"
		}
	]
}